:020000040800F2
:1000000038070020290200086714000811130008AF
:10001000651400081F040008671B000800000000AA
:100020000000000000000000000000007919000836
:100030002104000800000000AD1700087B1900082B
:10004000430200084302000843020008430200087C
:10005000430200084302000843020008430200086C
:10006000430200084302000843020008430200085C
:10007000430200084302000843020008430200084C
:10008000430200084302000843020008430200083C
:10009000430200084302000843020008430200082C
:1000A000430200084302000843020008430200081C
:1000B000291A00084302000843020008430200080E
:1000C00043020008430200084302000843020008FC
:1000D00043020008430200084302000843020008EC
:1000E00043020008430200084302000843020008DC
:1000F00043020008430200084302000843020008CC
:1001000043020008430200084302000843020008BB
:1001100043020008430200084302000843020008AB
:10012000430200084302000843020008430200089B
:10013000430200084302000843020008430200088B
:10014000430200084302000843020008430200087B
:10015000430200084302000843020008430200086B
:10016000430200084302000843020008430200085B
:100170004302000843020008430200080000000098
:10018000430200084302000800F002F800F03CF8C7
:100190000AA090E8000C82448344AAF10107DA45E2
:1001A00001D100F031F8AFF2090EBAE80F0013F0F8
:1001B000010F18BFFB1A43F001031847841B00000E
:1001C000A41B0000103A24BF78C878C1FAD852079F
:1001D00024BF30C830C144BF04680C6070470000C1
:1001E0000023002400250026103A28BF78C1FBD840
:1001F000520728BF30C148BF0B6070471FB501F0E0
:100200008BFD1FBD10B510BD00F0CFF81146FFF7F4
:10021000F5FF01F037FD00F0EDF803B4FFF7F2FF52
:1002200003BC00F0F5F80000094880470948004782
:10023000FEE7FEE7FEE7FEE7FEE7FEE7FEE7FEE796
:10024000FEE7FEE704480549054A064B70470000F3
:10025000191A000889010008380100203807002019
:10026000380300203803002053EA020C00F06980B4
:100270002DE9F04B4FF00006002B1FBFB3FA83F5BA
:1002800003FA05F424FA05F65E4012BF1643B2FAEB
:1002900082F502FA05F4C5F120051EBF22FA05FC1D
:1002A00044EA0C04203556EA044C4FEA144418BFC3
:1002B000641C4FF000084FF00009904271EB030CF2
:1002C00039D3002919BFB1FA81F701FA07F6B0FA5C
:1002D00080F700FA07F6C7F120071EBF20FA07FCD7
:1002E00046EA0C062037B6FBF4FCA7EB0507103FE7
:1002F00007F01F0BCBF120060CFA0BFB2CFA06F6CD
:1003000044BFB3460026202FA4BF5E464FF0000B2B
:100310005BEA060C08BF4FF0010B19EB0B09ABFBB6
:10032000027C48EB0608C01B06FB02CC0BFB03CC8F
:1003300071EB0C01C1E70B46024641464846BDE859
:10034000F08B13B54FF000004FF00001AFF30080C9
:10035000BDE81C4070474FF0000200B513469446BC
:100360009646203922BFA0E80C50A0E80C50B1F10D
:100370002001BFF4F7AF090728BFA0E80C5048BF21
:100380000CC05DF804EB890028BF40F8042B08BFBF
:10039000704748BF20F8022B11F0804F18BF00F8BB
:1003A000012B7047704770477047754600F02CF876
:1003B000AE4605006946534620F00700854618B052
:1003C00020B5FFF73FFFBDE820404FF000064FF09B
:1003D00000074FF000084FF0000B21F00701AC467A
:1003E000ACE8C009ACE8C009ACE8C009ACE8C00999
:1003F0008D46704710B50446AFF300802046BDE837
:100400001040FFF70ABF000000487047D8000020E6
:1004100001491820ABBEFEE7260002007047FEE748
:10042000704772B6FEE700002DE9F84FDFF8BCA177
:100430000022012503264FF00F090AF1040BAAF14F
:10044000040E00BF0B6805FA02F42340A34270D1EA
:100450000F7907F00307012F01D0022F16D187680B
:100460004FEA420806FA08FC27EA0C07D1F80CC04C
:100470000CFA08FC4CEA070CC0F808C04768A74310
:100480000C79C4F3001494403C4344600C79E44379
:10049000A4070AD0C4684FEA420C06FA0CF7BC4322
:1004A0008F6807FA0CF72743C7600C7904F0030440
:1004B000022C12D1D40800EB840CDCF82040570742
:1004C000FF0E09FA07F824EA0804D1F8108008FAA8
:1004D00007F848EA0408CCF8208004684FEA420C88
:1004E00006FA0CF7BC430F7907F0030707FA0CF77D
:1004F000274307604C6814F4403F70D03C4C276899
:1005000047F480472760246822F0030704F48044FE
:100510000094384C07EB040CDCF8084897074FEAC6
:10052000177809FA08F7BC43334FB84202D10027C5
:1005300024E054E0314FB84201D101271EE0304F92
:10054000B84201D1022719E02E4FB84201D103274A
:1005500014E02D4FB84201D104270FE02B4FB842D1
:1005600001D105270AE02A4FB84201D1062705E04C
:10057000284FB84201D1072700E0082707FA08F7FB
:100580002743CCF80878DAF800405746D1F804C081
:100590009C435FEACC2C00D51C433C60DBF8004058
:1005A0005F46D1F804C09C435FEA8C2C00D51C4305
:1005B0003C60DEF800407746D1F804C09C435FEA17
:1005C0008C3C00D51C433C60084F083F3C68D1F888
:1005D00004C09C435FEACC3C00D51C433C60521CE9
:1005E000102AFFF42FAFBDE8F88F0000083C01404F
:1005F0004438024000300140000002400004024044
:1006000000080240000C02400010024000140240AA
:1006100000180240001C02400AB1816170470904C1
:10062000FBE70000014880687047000008000020D8
:1006300002488168027811448160704708000020F8
:100640000B4810B5016841F400710160016841F484
:1006500080610160016841F480710160032000F055
:100660006FF80F2000F006F800F024F8002010BD0D
:10067000003C024070B50D4D04464FF47A71287865
:10068000B1FBF0F00A490968B1FBF0F000F071FC31
:1006900048B9102C07D200222146501E00F030F835
:1006A00000206C6070BD012070BD000008000020BB
:1006B000140000200A4808B5016841F48041016037
:1006C000006800F4804000900548001F016841F078
:1006D00080510160006800F08050009008BD00006B
:1006E00044380240002809DB00F01F02012191403C
:1006F0004009800000F1E020C0F8001170470000C0
:10070000F0B40E4B1B680C46C3F30223C3F107057C
:10071000042D00D90425191D072901D2002300E06A
:10072000DB1E012606FA05F1491E214099409E4034
:10073000761E16403143F0BC01F016BA0CED00E015
:10074000064900F0070208684FF6FF03184040EA28
:100750000220034A10430860704700000CED00E0DF
:100760000000FA052DE9F0470E46050065D0DFF8D8
:100770001481D8F80000F7B200F00700B04207D2A9
:1007800088F80070D8F8000000F00700B04254D19B
:1007900028683D4C810712D5400703D5206840F4F6
:1007A000E05020602878000703D5206840F46040BE
:1007B00020602068A96820F0F000084320602878B5
:1007C000C0072DD0304968680839012812D00228A6
:1007D00013D0032811D00968890700292DDA216870
:1007E00021F0030101432160FFF71CFF814641F224
:1007F000883A0EE009688903EFE709688901ECE7A8
:10080000FFF710FFA0EB0901514502D90320BDE815
:10081000F0872068696800F00C00B0EB810FEFD121
:10082000D8F80010404601F00701B14207D907701F
:10083000006800F00700B04201D00120E7E7287807
:10084000400705D52068E96820F4E050084320609F
:100850002878000706D52068296920F4604040EA1E
:10086000C100206000F018F82168084AC1F30311A4
:10087000515CC8400649086006480068FFF7FAFE68
:100880000020C4E7003C024008380240221D000856
:10089000140000200C000020154810B5006810F06E
:1008A0000C02144813D01449042A0FD0082A0ED180
:1008B0000F4C241F2268236802F03F025B0207D519
:1008C0002068C0F38810A0FB010106E0084610BDB7
:1008D0002168C1F38811A1FB00010023FFF7C4FCCC
:1008E0002168C1F30141491C4900B0FBF1F010BD82
:1008F000083802400024F40040787D012DE9F84FCB
:1009000004006ED02078DFF84C93C007A9F10405ED
:100910004AD009F104000168C1F38101012908D01E
:100920000068C0F3810002280AD1D9F80000400213
:1009300006D52868800337D560680028E1D033E009
:100940006068B0F5803F10D0B0F5A02F286810D0B7
:1009500020F480302860286820F4802028606068B7
:10096000A8B1FFF75FFE06460DE0286840F480302E
:10097000F4E740F480202860F7E700BFFFF752FE5D
:10098000801B642873D828688003F7D50CE0FFF734
:1009900049FE064605E000BFFFF744FE801B6428C1
:1009A000F0D828688003F7D42078DFF8AC8280077D
:1009B0004FF0000A3ED5A748001D016811F00C0F4A
:1009C00008D00068C0F3810002280BD1D9F80000DC
:1009D000400207D42868800716D5E068012800D1B6
:1009E00012E033E1E068B8B10120C8F80000FFF779
:1009F00019FE064605E000BFFFF714FE801B022823
:100A0000C0D828688007F7D52868216920F0F80049
:100A100040EAC10028600DE0C8F800A0FFF702FE20
:100A2000064604E0FFF7FEFD801B02281FD8286859
:100A30008007F7D42078000722D5864F8748616960
:100A4000703771B101210160FFF7ECFD064604E04B
:100A5000FFF7E8FD801B022809D838688007F7D522
:100A60000EE0C0F800A0FFF7DDFD064605E082E0DD
:100A7000FFF7D8FD801B02287DD838688007F7D49F
:100A80002078400768D5DFF8CCB100270BF13C0B8C
:100A9000DBF80000C0000BD4DBF8001041F08051FF
:100AA000CBF80010DBF80000012700F08050009028
:100AB0006B4E3068C00510D4306840F480703060F0
:100AC000FFF7B0FD009005E0FFF7ACFD0099401A7C
:100AD000022850D83068C005F6D55E4EA0686C3646
:100AE00001280FD00528306810D020F001003060B8
:100AF000306820F004003060A068B8B1FFF792FDC4
:100B000000900FE0306840F00100F4E740F004008E
:100B10003060F7E7FFF786FD0099411A41F288300F
:100B2000814266D830688007F4D50EE0FFF77AFD81
:100B3000009007E0FFF776FD0099411A41F28830F6
:100B4000814256D830688007F4D42FB1DBF800100A
:100B500021F08051CBF80010A069C8B33D49091DB0
:100B60000968C1F3810102294AD00228504607D002
:100B7000C8F8600000E03CE0FFF754FD04463BE0AD
:100B80004746C8F86000FFF74DFD064605E000BF88
:100B9000FFF748FD801B02282BD828688001F7D476
:100BA000D4E907010843A16A2E4A490802EB014132
:100BB000626A41EA8211084394F82C1040EA01610C
:100BC000C9F8001001203866FFF72CFD044606E046
:100BD0003EE000BFFFF726FD001B022809D8286869
:100BE0008001F7D534E000BFFFF71CFD001B022891
:100BF00002D90320BDE8F88F28688001F4D427E0EB
:100C00000128F7D0D9F80000E26900F48001914290
:100C10001CD1226A00F03F01914217D147F6C07102
:100C2000626A0140B1EB821F10D1A26A4FF0FF331C
:100C300000F4403103EB5202B1EB024F06D194F8BD
:100C40002C1000F07060B0EB016F01D00120D1E7F3
:100C50000020CFE70438024000004742800E4742A0
:100C6000007000400000FFFF70B5040009D0606A0A
:100C7000002540B125616561A56294F8510040B13D
:100C80000CE0012070BD6068B0F5827FF4D0E561B2
:100C9000F2E784F85050204600F044F8022084F82F
:100CA00051002068016821F040010160A08821897D
:100CB00000F4827001F404410843A18901F4006149
:100CC0000843217C01F002010843217D01F001016C
:100CD0000843218B01F400710843217F01F03801A2
:100CE000084394F8201001F080010843218D01F49D
:100CF0000051084321680860A069042101EA1040FE
:100D000094F8241001F0100108432168486020681D
:100D1000C16921F40061C1616565012084F8510059
:100D2000002070BD10B586B0044614216846FFF758
:100D300012FB14492068884221D11348002102681F
:100D400042F480420260006800F4804005900E4842
:100D50001038026842F002020260006800F00200EF
:100D600005904FF4604000900220CDE9010103207E
:100D700003900520049069460448FFF755FB06B030
:100D800010BD00000038004040380240000402401E
:100D90002DE9F84F044690F8500000270A9E1D46A2
:100DA00092468B464FF0010901280ED0012084F8AD
:100DB0005000FFF737FC804694F851006168012825
:100DC0000CD0B1F5827F07D102E00220BDE8F88F98
:100DD000A16809B9042801D00227C2E0BBF1000FC5
:100DE00027D0BAF1000F24D01DB394F85100042885
:100DF00002D0052084F8510000206065C4F838A0B6
:100E0000E587A587C4F830B0E586A58620646064D0
:100E100020680168490603D4016841F0400101607F
:100E2000E068B0F5006F606805D0E8B3012D46D0EA
:100E30007FE0012795E008B1012D39D1206B2168B1
:100E40000088C860206B801C2063E08E401EE08616
:100E50002EE02068816889070FD5E18E69B1B9F16C
:100E6000010F0AD1216B0988C160206B801C2063AF
:100E7000E08E401EE0864FF0000920688168C907B7
:100E80000CD0E18F51B1C068A16B0880A06B801CB1
:100E9000A063E08F401EE0874FF00109FFF7C2FB1F
:100EA000A0EB0800B04200E009E001D3701C50D173
:100EB000E08E0028CDD1E08F0028CAD13FE0206B22
:100EC000216800780873206B401C2063E08E401E70
:100ED000E0862EE02068816889070FD5E18E69B130
:100EE000B9F1010F0AD1216B09780173206B401C05
:100EF0002063E08E401EE0864FF000092068816884
:100F0000C9070CD0E18F51B1C068A16B0870A06B0C
:100F1000401CA063E08F401EE0874FF00109FFF7FF
:100F200081FBA0EB0800B04202D3701C01D010E09E
:100F30007EB1E08E0028CDD1E08F0028CAD1424694
:100F40003146204600F090FC28B101272020606542
:100F500007E0032705E0A06818B92068C168806829
:100F60000090012084F85100002084F85000384699
:100F70002CE710B5401EB0F1807F01D3012010BDD9
:100F80004FF0E02460610F21601700F0EDFD0020BC
:100F9000A06107202061002010BD7047704700004D
:100FA00070B590F83C20012A32D0012480F83C40F2
:100FB000022280F83D2003685A689D6822F070067E
:100FC0000A6832435A60134B02689A4214D0B2F155
:100FD000804F11D0104B9A420ED0104B9A420BD03A
:100FE0000F4B9A4208D00F4B9A4205D00E4B9A42B3
:100FF00002D00E4B9A4204D1496825F08003194370
:10100000916080F83D40002180F83C10084670BD9A
:10101000022070BD000001400004004000080040B4
:10102000000C004000040140004001400018004056
:1010300010B5040003D094F83D0010B107E0012082
:1010400010BD002084F83C00204600F01FF802206C
:1010500084F83D00211D206800F0ECFC012084F89C
:10106000460084F83E0084F83F0084F8400084F88D
:10107000410084F8420084F8430084F8440084F876
:10108000450084F83D00002010BD000008B5006850
:10109000B0F1804F12D10A48016841F001010160AE
:1010A0000068002200F00100009011461C20FFF7AC
:1010B00027FBBDE808401C20FFF714BB08BD00005B
:1010C0004038024070B5044690F83C0000250128E5
:1010D00017D0012684F83C60022084F83D00206887
:1010E000826822F0770222F47F42826008685028EA
:1010F00038D00DDC20284FD005DC90B3102811D15A
:101100004AE0022070BD302846D040280AD13BE09A
:1011100060282FD070280DD0B0F5805F03D0B0F5D7
:10112000005F12D0012584F83D60002084F83C0067
:10113000284670BDCB68D1E90121206800F0DEFCB3
:101140002068816841F0770109E0CB68D1E901218D
:10115000206800F0D3FC2068816841F48041816000
:10116000E1E719E0CA684968206800F0D9FC50211D
:10117000206806E0CA684968206800F0E2FC602147
:10118000206800F0C5FCCEE7CA684968206800F016
:10119000C7FC40212068F4E7226801461046F0E7CA
:1011A000704770B50446006801694FF00005C943F7
:1011B000890715D4C168C943890711D4E91E0161A3
:1011C00001202077206880698007204602D0FFF741
:1011D000E7FF04E000F098F8204600F096F8257745
:1011E00020680169C943490717D4C168C943490741
:1011F00013D46FF004010161022020772068806918
:1012000010F4407F204602D0FFF7CAFF04E000F050
:101210007BF8204600F079F8257720680169C943FA
:10122000090716D4C168C943090712D46FF0080131
:101230000161042020772068C0698007204602D021
:10124000FFF7AEFF04E000F05FF8204600F05DF825
:10125000257720680169C943C90617D4C168C94305
:10126000C90613D46FF010010161082020772068AF
:10127000C06910F4407F204602D0FFF791FF04E0E0
:1012800000F042F8204600F040F825772068016918
:10129000C943C90708D1C168C943C90704D1891E18
:1012A0000161204600F032F820680169C94309064F
:1012B00009D4C168C943090605D46FF080010161F2
:1012C0002046FFF76AFE20680169C943490609D430
:1012D000C168C943490605D46FF040010161204649
:1012E00000F015F820680169C94389060BD4C1686C
:1012F000C943890607D46FF0200101612046BDE88B
:101300007040FFF74BBE70BD704770477047704725
:10131000FEE700002DE9F04186B014216846FFF792
:101320001AF822480024016841F020010160016898
:1013300001F020010591016841F080010160016820
:1013400001F080010591016841F00201016000682F
:10135000174F00F002000590002201213846FFF7E8
:101360005BF9DFF85080BE14002231464046FFF79B
:1013700053F901250095CDE9015469463846039497
:10138000FFF752F80220CDE900046946384602947E
:10139000FFF74AF80096CDE90154694640460394A8
:1013A000FFF742F806B0BDE8F08100003038024097
:1013B0000014024000040240104810B50E490160BC
:1013C0004FF48271416000218160C1604FF400726E
:1013D0000161C0E905122022C0E907214162816252
:1013E0000A21C162FFF740FC002803D0BDE810408D
:1013F000FFF717B810BD000000380040380000208B
:1014000010B586B000241648009401940294039409
:1014100004944FF0804105940160A721C0E90114B4
:1014200040F2E731C0E903148461FFF701FE08B11F
:10143000FEF7F7FF4FF48050009069460848FFF729
:1014400041FE08B1FEF7EDFF049404A90448059499
:10145000FFF7A6FD002801D0FEF7E3FF06B010BDA0
:1014600090000020FEE7FEE770B500F0700500F088
:1014700083F80A4C0646206820F48050206027201C
:1014800000F0ECFB45EA060000F0E8FB206840F4C1
:1014900080502060BDE8704000F06EB81404024037
:1014A00070B51A4886B00025016841F0200101603E
:1014B0000068012400F02000154E0094059001946E
:1014C000039469463046FEF7AFFF012211463046CD
:1014D000FFF7A2F80220CDE90005039469460294C3
:1014E0003046FEF7A1FF012202213046FFF794F8B3
:1014F00007481430016821F00101016005480168C6
:1015000041F48051016006B070BD000030380240E7
:1015100000140240140402402DE9F0410C4D0F4626
:101520001646296821F48051296000F097FB0024B9
:1015300005E0FF2000F092FB3855641CE4B2B44291
:10154000F7D3286840F480502860BDE8F08100009F
:101550001404024010B5074C216821F48051216029
:1015600000F07CFBFF2000F079FB216841F4805102
:10157000216010BD1404024010B5064C206820F410
:1015800080502060072000F069FB216841F4805101
:10159000216010BD1404024070B5204D06460024A1
:1015A000286820F480502860E22000F057FB28686B
:1015B00040F4805028601A4D07E0642000F0F1FAF2
:1015C0002046641CE4B21E281DD0286840F3400069
:1015D000401CF2D00720FFF7BDFF0446014607205C
:1015E00000F0A4F8600616D56020FFF7B3FF0446AC
:1015F000024631466120FFF78FFFFF21E22000F015
:1016000095F8204670BDFFF74BFF00F0D1F80120A0
:1016100000F016F9DEE7002070BD0000140402405F
:1016200010140240052A00D90522052800D90520FA
:101630000A30C0B200F05CB8052900D905210A467D
:101640000146102000F054B82DE9F041264D074620
:101650000E462868002420F480502860E12000F025
:10166000FDFA286840F480502860204D286820F05A
:101670000100286032463946A02000F039F8286879
:1016800040F0010028604FF4FA762D1F0FE0012092
:1016900000F087FA2046641CA4B2B04207D1FFF7DD
:1016A000FFFE00F085F8002000F0CAF804E028688A
:1016B00040F34000401CEAD00720FFF74BFF0446F0
:1016C0000146072000F032F8E00606D5FF21E120B0
:1016D00000F02CF81020BDE8F081A00601D52020F4
:1016E000F9E7FF20F7E70000140402401414024059
:1016F0002DE9F0410C4D0F461646296821F4805122
:10170000296040F0200000F0A9FA002404E0385DD0
:1017100000F0A4FA641CE4B2B442F8D3286840F4A0
:1017200080502860BDE8F0811404024070B5094C77
:101730000D46216821F48051216040F0200000F026
:101740008DFA284600F08AFA206840F48050206024
:1017500070BD0000140402407FB512A16D46D1E9AE
:101760000001CDE900010020029002AC03900522A7
:1017700069461020FFF7BCFF052202A91020FFF7E1
:10178000CBFE0020295C225C914203D1401CC0B2F8
:101790000528F7D3052803D0042000F0F5F9E6E783
:1017A0007FBD0000A5A5A5A5A5000000704700000D
:1017B0001CB520A1D1E90001CDE900011F48016855
:1017C00041F0010101607020FFF74EFE01211C2055
:1017D000FFF7ACFF07211D20FFF7A8FF1C20FFF734
:1017E000B9FE1D20FFF7B6FE0A210020FFF79EFF7D
:1017F00001210846FFF79AFF01210220FFF796FF1B
:1018000003210846FFF792FFFF210420FFF78EFF18
:101810003C210520FFF78AFF26210620FFF786FFDF
:1018200005216846FFF708FF052269460020FFF7FB
:10183000F9FE1CBD344310100100000014140240D6
:1018400010B504460020FFF785FE014614B1012CB7
:1018500003D004E020F0010101E040F00101BDE807
:1018600010400020FFF762BF38B504461248134B02
:101870000068B0FBF3F04FF47A735843009060684F
:10188000B0F5827F0DD10B460092002280212046C8
:1018900000F016F870B1606D40F020006065032024
:1018A00038BD009830B1401E009020688068C04369
:1018B0000006F6D5002038BD1400002000366E0169
:1018C0002DE9F8431E46914688460446089DFEF7DA
:1018D000A9FE401B351AFEF7A5FE074625480068FD
:1018E000C0F3CB30684338E0701C37D0FEF79AFE67
:1018F000C01BA84203D215B1009860B32CE0206849
:10190000416821F0E00141606068B0F5827F0BD151
:10191000A068B0F5004F02D0B0F5806F04D1206808
:10192000016821F040010160A06AB0F5005F09D1B3
:101930002068016821F4005101602068016841F4C9
:1019400000510160012084F85100002084F850000B
:101950000320BDE8F8830025401E009020688168C0
:1019600038EA010004D000214945BDD10020F0E74C
:101970000121F9E7140000207047FEF759BE00006E
:1019800030B593B030216846FEF7E5FC14210CA871
:10199000FEF7E1FC1E480025016841F0805101601E
:1019A000006800F0805011901A48016841F48041AD
:1019B00001600068022400F4804011900120009032
:1019C000000401908001CDE90640192008904FF4F1
:1019D000A870CDE9090404200B906846FEF78EFF3D
:1019E00008B172B6FEE70CA90F2081E831004FF470
:1019F000A0500F904FF48050109005210CA8FEF7D6
:101A0000B1FE002801D072B6FEE713B030BD000071
:101A100040380240007000400248016841F4700103
:101A20000160704788ED00E00148FFF7BABB000095
:101A300090000020F0B50268254C264D264E274F19
:101A4000274B4FF0804CA04209D0604507D0A842F8
:101A500005D0B04203D0B84201D0984204D122F060
:101A6000700E4A6842EA0E02A0421BD0604519D0AF
:101A7000A84217D0B04215D0B84213D0984211D026
:101A8000184DA8420ED0184DA8420BD0174DA842B1
:101A900008D0174DA84205D0164DA84202D0164DC9
:101AA000A84203D122F44075CA682A434D6922F046
:101AB00080022A4302608A68C2620A688262A04287
:101AC00001D0984201D10969016301214161F0BD52
:101AD000000001400004004000080040000C0040ED
:101AE0000004014000400140004401400048014022
:101AF00000180040001C00400020004010B5846821
:101B000042EA032224F47F440A432243826010BD48
:101B1000826822F070020A4342F007018160704738
:101B200010B5036A046A24F001040462846924F095
:101B3000F00444EA021423F00A020A4384610262B8
:101B400010BD10B5036A23F0100303628369046AB1
:101B500023F4704343EA023224F0A00343EA011164
:101B60008261016210BDFEE70907090E002804DB4F
:101B700000F1E02080F80014704700F00F0000F141
:101B8000E02080F8141D704700B5024605E03220C1
:101B900000F007F8322000F004F8521ED2B2F6D25C
:101BA00000BD4FF47A7110FB01F14FF08040C1622B
:101BB00000214162016841F0010101600169C9072A
:101BC000FCD0016921F001010161016821F00101EE
:101BD0000160704728B10648416981F020014161E8
:101BE00070470448016881F480510160704700002B
:101BF00000100240141C024030B50E4887B000218E
:101C0000026842F08002026000680B4D00F0800024
:101C1000059001200403CDE9004003916946284660
:101C2000FEF702FC002221462846FEF7F5FC07B02D
:101C300030BD000030380240001C02404FF000026E
:101C400020B10448202100BFFEF7E6BC4FF48051CC
:101C50000148F9E700100240001C024001B582B0C3
:101C600000208DF804004FF47A700090012301AA3F
:101C700002A90348FFF78CF89DF804000EBD000090
:101C800038000020FEF7DCFCFFF77AFEFFF742FB8E
:101C9000FFF792FBFFF7B4FB0025FFF7ADFFFFF75F
:101CA000FFFBFFF759FDFFF783FD0020FFF7C6FF9D
:101CB000174C0020FFF78EFF0120FFF765FF6D1C1A
:101CC000EDB2062DF5D3012600256078A0B10120E4
:101CD000FFF7B6FD0F48FFF75FFC20700028F4D037
:101CE0000020FFF777FF657025700120FFF74CFF9C
:101CF0000120FFF749FFE8E70020FFF7A1FD0020E2
:101D0000FFF768FF08216068FFF79EFC6670DCE75C
:101D100000000020180000204FF04070E1EE100A93
:101D200070470000000000000000010203040607E5
:101D300008090000617368696E696E670000000041
:101D4000601D00080000002018000000C401000809
:101D5000781D00081800002020070000E00100089E
:101D600000000000341D0008010000001000000009
:081D7000000000000024F40053
:040000050800018965
:00000001FF
